:020000040800F2
:100000000050002075360008A5190008AB1900083B
:10001000B1190008B7190008BD1900080000000058
:10002000000000000000000000000000C3190008EC
:10003000CF19000800000000DB190008E7190008CC
:10004000BD360008BD360008BD360008BD360008C4
:10005000BD360008BD360008BD360008BD360008B4
:10006000BD360008BD360008BD360008BD360008A4
:10007000BD360008BD360008BD360008BD36000894
:10008000BD360008BD360008BD360008BD36000884
:10009000BD360008BD360008BD360008BD36000874
:1000A000BD360008BD360008BD360008BD36000864
:1000B000BD360008BD360008BD360008BD36000854
:1000C000BD360008BD360008BD360008BD36000844
:1000D000BD360008BD360008BD360008BD36000834
:1000E000BD360008BD360008BD360008000000001F
:1000F0000000000000000000000000000000000000
:0C01000000000000000000005FF808F1A3
:10010C0010B5054C237833B9044B13B10448AFF345
:10011C0000800123237010BD980000200000000017
:10012C007C3F000808B5034B1BB103490348AFF3F0
:10013C00008008BD000000009C0000207C3F0008EF
:10014C00034613F8012B002AFBD1181A013870470B
:10015C0080B485B000AF78607B68FB600A4B1B688D
:10016C000A4AA2FB03239A0CFB6802FB03F3FB6015
:10017C0000BFFB685A1EFA60002BFAD100BF14377F
:10018C00BD4680BC704700BF28000020819F5E16D2
:10019C0080B582B000AF78607B68002B08D00A4B2A
:1001AC0018680A4B1B880122194601F00FFF07E063
:1001BC00054B1868054B1B880022194601F006FFF9
:1001CC0000BF0837BD4680BDBC000020C000002029
:1001DC0080B582B000AF78607B68002B08D00A4BEA
:1001EC0018680A4B1B880122194601F0EFFE07E044
:1001FC00054B1868054B1B880022194601F0E6FEDA
:10020C0000BF0837BD4680BDBC000020C2000020E6
:10021C0080B584B000AF0346FB710020FFF7B8FF38
:10022C00FB7903F01F03DBB23B7307F10C01642372
:10023C0001220A4802F081FB07F10C03591C6423CC
:10024C000122064802F0B3FC7B7BFB730120FFF715
:10025C009FFFFB7B18461037BD4680BDC4000020B5
:10026C0080B584B000AF03463960FB711346BB7197
:10027C000020FFF78DFFFB7903F01F03DBB23B730C
:10028C0007F10C0164230122084802F056FBBB79EC
:10029C009AB264233968054802F089FC0120FFF703
:1002AC0077FF00BF1037BD4680BD00BFC4000020E3
:1002BC0080B584B000AF03460A46FB711346BB7190
:1002CC000020FFF765FFFB7943F02003DBB23B73A3
:1002DC00BB797B7307F10C0164230222044802F002
:1002EC002CFB0120FFF754FF00BF1037BD4680BD2B
:1002FC00C400002080B584B000AF03463960FB71A8
:10030C001346BB710020FFF743FFFB7943F020033A
:10031C00DBB23B7307F10C0164230122084802F0A5
:10032C000CFBBB799AB264233968054802F005FBD3
:10033C000120FFF72DFF00BF1037BD4680BD00BF69
:10034C00C400002080B584B000AF78600B46FB7011
:10035C000020FFF71DFFA023FB7307F10F0164239F
:10036C000122084802F0E9FAFB789AB26423796812
:10037C00044802F0E2FA0120FFF70AFF00BF103731
:10038C00BD4680BDC400002080B500AFFF21E12038
:10039C00FFF78EFF00BF80BD80B500AFFF21E220CC
:1003AC00FFF786FF00BF80BD80B582B000AF07208D
:1003BC00FFF72EFF0346FB71FB7918460837BD4645
:1003CC0080BD000082B080B584B000AF7860FB6166
:1003DC000B467B8013463B80664B184607F11C038B
:1003EC005822194603F090F9634A7B681360634AFC
:1003FC007B881380624A3B8813800120FFF7C8FE7C
:10040C000020FFF7E5FE052001F082FB082100200B
:10041C00FFF74EFF3F210120FFF74AFF0321022087
:10042C00FFF746FF03210320FFF742FF03210420BF
:10043C00FFF73EFF02210520FFF73AFF0F210620B0
:10044C00FFF736FF0E210720FFF732FF00210820AF
:10045C00FFF72EFF00210920FFF72AFFE7233B734C
:10046C00E723FB72E723BB72E7237B72E7233B7224
:10047C0007F10803052219460A20FFF73BFFC223A8
:10048C003B73C223FB72C223BB72C2237B72C22397
:10049C003B7207F10803052219460B20FFF72AFFD0
:1004AC00C3210C20FFF704FFC4210D20FFF700FF30
:1004BC00C5210E20FFF7FCFEC6210F20FFF7F8FE2A
:1004CC00E7233B73E723FB72E723BB72E7237B72C3
:1004DC00E7233B7207F10803052219461020FFF7AA
:1004EC0009FF00211120FFF7E3FE00211220FFF786
:1004FC00DFFE00211320FFF7DBFE00211420FFF7A5
:10050C00D7FE00211520FFF7D3FE00211620FFF7A0
:10051C00CFFE00F08BFA00211C20FFF7C9FE002152
:10052C001D20FFF7C5FE00F09BFA0F210F2000F0F5
:10053C00B1F8032000F029F9012000F05FF9022046
:10054C0000F0A2F900F0F4F8202000F0D3F800F04D
:10055C0064FA4C2000F0B9F8FFF716FFFFF71CFF08
:10056C0000F0BAF900BF1037BD46BDE8804002B0BC
:10057C00704700BFC4000020BC000020C000002059
:10058C00C200002080B500AF0020FFF721FEFFF76E
:10059C00FBFEFFF701FF00BF80BD000080B586B0F9
:1005AC0000AF78600B46FB7000F037FAFB78194609
:1005BC00786800F0D0F901F0A1FA78610A233B6168
:1005CC0007F10D03012219460820FFF749FEFFF73A
:1005DC00EBFE0346FB73FB7B03F03003002B07D1D0
:1005EC0001F08CFA02467B69D21A3B699A42E7D336
:1005FC0000F04AFF00F0C6FE07F10B0107F10C03F7
:10060C000C4A184600F0D6F93B7BBB73094B1B78A0
:10061C00002B05D000F084F803461A46064B1A70DE
:10062C0000F00CF8FFF7B0FEBB7B18461837BD4640
:10063C0080BD00BFB4000020B500002080B500AF25
:10064C00002000F058F90346184680BD80B584B0F0
:10065C0000AFC7E900013B46052219460A20FFF707
:10066C0049FE3B46052219461020FFF743FE202386
:10067C00FB73074B1B78FA7B934228BF1346DBB204
:10068C0019461120FFF714FE00BF1037BD4680BD80
:10069C00B600002080B582B000AF03460A46FB715D
:1006AC001346BB71FB791B015AB297F9063003F064
:1006BC000F035BB213435BB2DBB219460420FFF7A6
:1006CC00F7FD00BF0837BD4680BD80B584B000AFD4
:1006DC000346FB717F23FB73FA7BFB79934228BFA4
:1006EC001346DBB219460520FFF7E2FD00BF1037B9
:1006FC00BD4680BD80B485B000AF0346FB7120239E
:10070C00FB73FA7BFB79934228BF1346DAB2034B97
:10071C001A7000BF1437BD4680BC7047B60000206D
:10072C0080B500AF6020FFF773FD0346184680BD0F
:10073C0080B500AF1D20FFF76BFD034623F00403CB
:10074C00DBB219461D20FFF7B3FD00211C20FFF77B
:10075C00AFFD024B00221A7000BF80BDB700002015
:10076C0080B582B000AF0346FB71FB79002B04D03F
:10077C003F210120FFF79CFD03E000210120FFF742
:10078C0097FD00BF0837BD4680BD80B584B000AF73
:10079C000346FB710620FFF73BFD0346FB73FB7B17
:1007AC0023F00603FB73FB79032B04D1FB7B43F093
:1007BC000603FB7319E0FB79022B04D1FB7B43F09E
:1007CC000403FB7311E0FB79012B04D1FB7B43F099
:1007DC000203FB7309E0FB79002B06D0FB79042B99
:1007EC0003D1FB7B43F00603FB73FB7B194606200E
:1007FC00FFF75EFD00BF1037BD4680BD80B584B0ED
:10080C0000AF0346FB710023FB730620FFF700FDCE
:10081C000346BB731B4B00221A70BB7B23F02803CF
:10082C00BB73FB79022B07D1164B00221A70BB7BD2
:10083C0043F02003BB730DE0FB79012B07D1114B67
:10084C0001221A70BB7B43F00803BB7302E00D4B13
:10085C0000221A70BB7B19460620FFF729FD0620E3
:10086C00FFF7D6FC03461A46BB7B934202D1012309
:10087C00FB7302E0034B00221A70FB7B1846103707
:10088C00BD4680BDB800002080B584B000AF0346E3
:10089C00FB710020FFF7BCFC034623F00C03FB7339
:1008AC00FB79002B0FD0FB79012B04D1FB7B43F0A0
:1008BC000803FB7307E0FB7B43F00803FB73FB7B34
:1008CC0043F00403FB73FB7B19460020FFF7F0FC9D
:1008DC0000BF1037BD4680BD80B500AF0020FFF7CC
:1008EC0097FC034623F00203DBB219460020FFF706
:1008FC00DFFC00BF80BD80B584B000AF7860FFF72F
:10090C0053FD0346FB73FB7B03F04003002B14BF2A
:10091C0001230023BB73BB7B002B17D07B68002B00
:10092C0007D0FB7B5B08DBB203F00703DAB27B6812
:10093C001A7040210720FFF7BBFCFB7B03F0200360
:10094C00002B03D020210720FFF7B2FCBB7B1846FD
:10095C001037BD4680BD80B582B000AF78600B46C5
:10096C00FB700020FFF734FC0020FFF751FC03461E
:10097C0043F00203DBB223F00103DBB21946002083
:10098C00FFF796FC0120FFF723FC9620FFF7E0FB16
:10099C00FB7819467868FFF7D5FC0120FFF718FCA7
:1009AC000F20FFF7D5FB0020FFF712FC00BF083724
:1009BC00BD4680BD80B586B000AFF860B9607A6086
:1009CC00FFF7F2FC0346FB75FB6800221A707021DE
:1009DC000720FFF76DFCFB7D03F02003002B14BFF9
:1009EC0001230023DAB2FB681A70FB7D03F01003BD
:1009FC00002B14BF01230023DAB2BB681A70FB7DF5
:100A0C0003F04003002B14BF01230023DAB27B68F0
:100A1C001A7000BF1837BD4680BD80B500AF70217D
:100A2C000720FFF745FC00BF80BD000080B582B0F9
:100A3C0000AF0020FFF7ACFB50233B7173237B719D
:100A4C00391D64230222054801F077FF0120FFF7CE
:100A5C009FFB00BF0837BD4680BD00BFC40000200F
:100A6C00F0B5A1B004AF07F10803B64A1C46154611
:100A7C000FCD0FC40FCD0FC40FCD0FC42B681A466A
:100A8C00228002341B0C237007F108031846FFF771
:100A9C0057FB03469AB207F108010A23AA4802F051
:100AAC007AFC0020FFF7B4FB034687F86F3097F809
:100ABC006F3003F00803002B20D097F86F3003F051
:100ACC000403002B0BD007F10803A04A1C46154663
:100ADC000FCD0FC495E8070084E8070017E007F175
:100AEC0008039B4A1C4615460FCD0FC495E807001A
:100AFC0003C422800234130C237008E007F10803AE
:100B0C00944A1C4615460FCD0FC42B68236007F181
:100B1C0008031846FFF714FB03469AB207F10801C5
:100B2C000A23894802F037FC0120FFF771FB0346CA
:100B3C0087F86F3097F86F3003F00103002BCCBFB0
:100B4C0001230023DBB21D4697F86F3003F002033C
:100B5C00002BCCBF01230023DBB21E4697F86F306D
:100B6C0003F00403002BCCBF01230023DBB21A4695
:100B7C0097F86F3003F00803002BCCBF0123002340
:100B8C00DBB2194697F86F3003F01003002BCCBF83
:100B9C0001230023DBB21C4697F86F3003F02003CF
:100BAC00002BCCBF01230023DBB207F10800039319
:100BBC0002940191009233462A46674902F0B8FD2F
:100BCC0007F108031846FFF7BBFA03469AB207F180
:100BDC0008010A235C4802F0DEFB0220FFF718FB39
:100BEC00034687F86F3097F86F3003F00103002B42
:100BFC00CCBF01230023DBB21D4697F86F3003F006
:100C0C000203002BCCBF01230023DBB21E4697F856
:100C1C006F3003F00403002BCCBF01230023DBB2A5
:100C2C001A4697F86F3003F00803002BCCBF012352
:100C3C000023DBB2194697F86F3003F01003002B3A
:100C4C00CCBF01230023DBB21C4697F86F3003F0B6
:100C5C002003002BCCBF01230023DBB207F10800DB
:100C6C00039302940191009233462A463B4902F0C9
:100C7C005FFD07F108031846FFF762FA03469AB2C4
:100C8C0007F108010A23304802F085FB0320FFF727
:100C9C00BFFA034603F0030387F86F3097F86F3001
:100CAC00023387F86F3097F86F2007F108032C494F
:100CBC00184602F03DFD07F108031846FFF740FA0D
:100CCC0003469AB207F108010A231F4802F063FB9E
:100CDC000520FFF79DFA034687F86F3097F86F30C1
:100CEC0003F07F0207F108031E49184602F020FDAD
:100CFC0007F108031846FFF723FA03469AB207F1E7
:100D0C0008010A23104802F046FB0620FFF780FA80
:100D1C00034687F86F3097F86F3003F00803002B09
:100D2C0024D007F10803104A1C4615460FCD0FC4FA
:100D3C0095E8030020600434218002340B0C2370EE
:100D4C0023E000BF943F00081C010020C83F0008AE
:100D5C00E43F000800400008144000085840000818
:100D6C00A4400008C0400008D440000807F1080364
:100D7C00294A1C4615460FCD0FC495E80300206088
:100D8C000434218002340B0C237007F1080318463D
:100D9C00FFF7D6F903469AB207F108010A231F4858
:100DAC0002F0F9FA97F86F3003F0060387F86F300A
:100DBC0097F86F305B0887F86F3097F86F30002B1F
:100DCC0009D107F10803164A1C4615460FCD0FC46E
:100DDC002B68236037E097F86F30012B09D107F1AE
:100DEC000803104A1C4615460FCD0FC42B68236010
:100DFC0029E097F86F30022B18D107F108030A4A43
:100E0C001C4615460FCD0FC42B681A46228002349F
:100E1C001B0C237017E000BFEC4000081C010020E5
:100E2C0004410008184100082C41000897F86F3065
:100E3C00032B08D107F10803D74A1C4615460FCDE2
:100E4C000FC42B68238007F108031846FFF778F9C5
:100E5C0003469AB207F108010A23D04802F09BFA24
:100E6C003B46052219460A20FFF7FAF93B791C4646
:100E7C00FB781D46BB787A78397807F10800029127
:100E8C00019200932B462246C54902F051FC07F112
:100E9C0008031846FFF754F903469AB207F1080104
:100EAC000A23BE4802F077FA3B46052219460B206E
:100EBC00FFF7D6F93B791C46FB781D46BB787A7850
:100ECC00397807F108000291019200932B462246D3
:100EDC00B44902F02DFC07F108031846FFF730F96E
:100EEC0003469AB207F108010A23AC4802F053FA00
:100EFC003B46012219460C20FFF7B2F93B781A4603
:100F0C0007F10803A849184602F012FC07F1080380
:100F1C001846FFF715F903469AB207F108010A23A0
:100F2C009E4802F038FA3B46012219460D20FFF785
:100F3C0097F93B781A4607F108039C49184602F0CA
:100F4C00F7FB07F108031846FFF7FAF803469AB2C5
:100F5C0007F108010A23914802F01DFA3B460122D1
:100F6C0019460E20FFF77CF93B781A4607F1080367
:100F7C008F49184602F0DCFB07F108031846FFF70F
:100F8C00DFF803469AB207F108010A23834802F0FE
:100F9C0002FA3B46012219460F20FFF761F93B7814
:100FAC001A4607F108038349184602F0C1FB07F102
:100FBC0008031846FFF7C4F803469AB207F1080174
:100FCC000A23764802F0E7F93B4605221946102021
:100FDC00FFF746F93B791C46FB781D46BB787A78BF
:100FEC00397807F108000291019200932B462246B2
:100FFC00714902F09DFB07F108031846FFF7A0F8B2
:10100C0003469AB207F108010A23644802F0C3F9B7
:10101C001120FFF7FDF8034687F86F3097F86F3013
:10102C0003F03F0207F108036449184602F080FB05
:10103C0007F108031846FFF783F803469AB207F145
:10104C0008010A23554802F0A6F91220FFF7E0F830
:10105C00034687F86F3097F86F3003F03F0207F1C3
:10106C0008035749184602F063FB07F108031846BA
:10107C00FFF766F803469AB207F108010A234748BE
:10108C0002F089F91320FFF7C3F8034687F86F3095
:10109C0097F86F3003F03F0207F1080349491846EF
:1010AC0002F046FB07F108031846FFF749F8034620
:1010BC009AB207F108010A23384802F06CF914209F
:1010CC00FFF7A6F8034687F86F3097F86F3003F0F8
:1010DC003F0207F108033C49184602F029FB07F1CF
:1010EC0008031846FFF72CF803469AB207F10801DB
:1010FC000A232A4802F04FF91520FFF789F8034616
:10110C0087F86F3097F86F3003F03F0207F1080350
:10111C002E49184602F00CFB07F108031846FFF79E
:10112C000FF803469AB207F108010A231B4802F094
:10113C0032F91620FFF76CF8034687F86F3097F8F2
:10114C006F3003F03F0207F108032149184602F003
:10115C00EFFA07F108031846FEF7F2FF03469AB2BE
:10116C0007F108010A230D4802F015F91C20FFF7BE
:10117C004FF8034687F86F3097F86F3003F0010390
:10118C00002BCCBF01230023DBB21D4697F86F3038
:10119C0003F002031EE000BF404100081C010020C8
:1011AC005441000884410008B4410008DC410008A7
:1011BC00044200082C4200085442000880420008F7
:1011CC009C420008B8420008D4420008F0420008D3
:1011DC000C430008002BCCBF01230023DBB21E46BE
:1011EC0097F86F3003F00403002BCCBF01230023CE
:1011FC00DBB21A4697F86F3003F00803002BCCBF14
:10120C0001230023DBB2194697F86F3003F010036B
:10121C00002BCCBF01230023DBB21C4697F86F30A8
:10122C0003F02003002BCCBF01230023DBB207F11A
:10123C000800039302940191009233462A464A49CE
:10124C0002F076FA07F108031846FEF779FF034619
:10125C009AB207F108010A23444802F09CF81D20B9
:10126C00FEF7D6FF034687F86F3097F86F3003F020
:10127C000403002B0CD007F108033D4A1C4615460D
:10128C000FCD0FC495E803002060043421800EE0DC
:10129C0007F10803374A1C4615460FCD0FC495E8D5
:1012AC00030020600434218002340B0C237007F1FE
:1012BC0008031846FEF744FF03469AB207F10801EB
:1012CC000A232A4802F067F897F86F3003F00203FC
:1012DC00002B0BD007F10803274A1C4615460FCDEF
:1012EC000FC495E8070003C422800DE007F1080342
:1012FC00224A1C4615460FCD0FC495E8070003C4BF
:10130C0022800234130C237007F108031846FEF7F1
:10131C0017FF03469AB207F108010A23134802F09B
:10132C003AF807F10803164A1C4615460FCD0FC4B0
:10133C000FCD0FC40FCD0FC42B681A462280023478
:10134C001B0C237007F108031846FEF7F9FE034641
:10135C009AB207F108010A23044802F01CF800BFF6
:10136C007437BD46F0BD00BF284300081C010020A7
:10137C00744300088C430008A4430008C0430008D1
:10138C00943F0008B0B59EB004AF3B463B4A1C46A8
:10139C0015460FCD0FC495E80F0007C423803B46BC
:1013AC001846FEF7CDFE03469AB239460A23344856
:1013BC0001F0F1FF0720FEF72BFF034687F867309B
:1013CC0097F8673003F04003002BCCBF01230023B8
:1013DC00DBB21C4697F8673003F02003002BCCBF20
:1013EC0001230023DBB21D4697F8673003F010038E
:1013FC00002BCCBF01230023DBB21A4697F86730D1
:10140C0003F00603002BCCBF01230023DBB21946EB
:10141C0097F8673003F00103002BCCBF01230023A6
:10142C00DBB238460293019100922B4622461549B5
:10143C0002F07EF93B461846FEF782FE03469AB24E
:10144C0039460A230E4801F0A6FF3B460B4A1C46C0
:10145C0015460FCD0FC495E80F0007C423803B46FB
:10146C001846FEF76DFE03469AB239460A23044825
:10147C0001F091FF00BF6837BD46B0BDDC430008EA
:10148C001C010020FC430008B0B59AB000AF3B46ED
:10149C002A4A1C4615460FCD0FC495E80F0007C409
:1014AC0023803B461846FEF74BFE03469AB239465C
:1014BC000A23234801F06FFF0020FEF7A9FE034624
:1014CC0087F8673097F8673003F00203002BCCBF26
:1014DC0001230023DBB21A4697F8673003F00103AF
:1014EC00002BCCBF01230023DBB23846154902F098
:1014FC001FF93B461846FEF723FE03469AB23946BF
:10150C000A230F4801F047FF3B460C4A1C46154680
:10151C000FCD0FC495E80F0007C423803B46184637
:10152C00FEF70EFE03469AB239460A23044801F030
:10153C0032FF00BF6837BD46B0BD00BFDC430008BA
:10154C001C0100205444000884B0B0B400AF07F173
:10155C000C0484E80F00094B1C4607F10C050FCD59
:10156C000FC40FCD0FC40FCD0FC495E80F0084E846
:10157C000F0000BFBD46B0BC04B070471C0100207A
:10158C00F0B597B016AF00F061FA00F057F800F024
:10159C00F7F800F0CBF800F093F8224C6846231DC6
:1015AC005422194602F0B0F823684FF480724FF4BD
:1015BC0000711D48FEF706FF1C4E6D4606F1100427
:1015CC000FCC0FC50FCC0FC594E80F0085E80F00AA
:1015DC0096E80F00FFF7B8FFFFF742FAFEF7D2FFCD
:1015EC00134B18CB18462146FFF730F80120FFF7B4
:1015FC00B7F83420FFF769F82020FFF77BF820219B
:10160C000C48FEF7CBFF0346002BF8D00A231A2216
:10161C000949064801F0BFFE4FF47A7000F078FAE1
:10162C00EDE700BF68010020000C0140C001002064
:10163C000000002008000020D844000880B590B0BD
:10164C0000AF07F1180328220021184602F067F8B2
:10165C003B1D00221A605A609A60DA601A610223FC
:10166C00BB610123BB621023FB6202237B6300235B
:10167C00BB634FF46013FB6307F11803184600F0CB
:10168C00BDFC0346002B01D000F0BAF80F237B60A1
:10169C000223BB600023FB604FF480633B6100239B
:1016AC007B613B1D0221184600F028FF0346002BEE
:1016BC0001D000F0A5F800BF4037BD4680BD00004A
:1016CC0080B500AF174B184A1A60164B4FF4827254
:1016DC005A60144B00229A60124B0022DA60114BB4
:1016EC0000221A610F4B00225A610E4B4FF400720C
:1016FC009A610C4B2022DA610A4B00221A62094BC8
:10170C0000225A62074B00229A62064B0A22DA62C6
:10171C00044801F08FF80346002B01D000F070F85C
:10172C0000BF80BD680100200038004080B500AFCC
:10173C00114B124A1A60104B4FF4E1325A600E4BA7
:10174C0000229A600C4B0022DA600B4B00221A61CB
:10175C00094B0C225A61084B00229A61064B00225D
:10176C00DA61054801F0CAFD0346002B01D000F0F8
:10177C0047F800BF80BD00BFC001002000440040FE
:10178C0080B586B000AF07F1080300221A605A60DA
:10179C009A60DA60184A184B9B6943F00403936112
:1017AC00154B9B6903F004037B607B68124A124B58
:1017BC009B6943F0080393610F4B9B6903F008038B
:1017CC003B603B6800224FF440710C4800F0FEFB7C
:1017DC004FF44073BB600123FB6000233B61022389
:1017EC007B6107F108031946044800F095FA00BF25
:1017FC001837BD4680BD00BF00100240000C0140F0
:10180C0080B400AF72B6FEE780B485B000AF154A65
:10181C00144B9B6943F001039361124B9B6903F0DA
:10182C000103BB60BB680F4A0E4BDB6943F080536E
:10183C00D3610C4BDB6903F080537B607B680A4BF4
:10184C005B68FB60FB6823F0E063FB60FB6843F0C4
:10185C000073FB60044AFB68536000BF1437BD463D
:10186C0080BC7047001002400000014080B588B079
:10187C0000AF786007F1100300221A605A609A607A
:10188C00DA607B681B681C4A934231D11B4A1B4BA4
:10189C00DB6943F48043D361184BDB6903F4804369
:1018AC00FB60FB68154A154B9B6943F00803936179
:1018BC00124B9B6903F00803BB60BB684FF42043D9
:1018CC003B6102237B610323FB6107F11003194683
:1018DC000B4800F021FA4FF480433B6100237B61FD
:1018EC000023BB6107F110031946054800F014FAF8
:1018FC0000BF2037BD4680BD0038004000100240BC
:10190C00000C014080B588B000AF786007F110037F
:10191C0000221A605A609A60DA607B681B681B4A66
:10192C0093422FD11A4A1A4BDB6943F40033D3612B
:10193C00174BDB6903F40033FB60FB68144A144B50
:10194C009B6943F004039361114B9B6903F00403FF
:10195C00BB60BB6804233B6102237B610323FB61F7
:10196C0007F1100319460B4800F0D6F908233B6128
:10197C0000237B610023BB6107F110031946054866
:10198C0000F0CAF900BF2037BD4680BD00440040BE
:10199C00001002400008014080B400AFFEE780B4A4
:1019AC0000AFFEE780B400AFFEE780B400AFFEE707
:1019BC0080B400AFFEE780B400AF00BFBD4680BC72
:1019CC00704780B400AF00BFBD4680BC704780B488
:1019DC0000AF00BFBD4680BC704780B500AF00F0C3
:1019EC007BF800BF80BD000080B584B000AF78608C
:1019FC00114B1B68002B02D10F4B104A1A600E4B77
:101A0C001B68FB600C4B1A687B6813446A46934254
:101A1C0007D901F04FFE02460C2313604FF0FF3341
:101A2C0006E0054B1A687B681344034A1360FB6895
:101A3C0018461037BD4680BD5C010020080200200E
:101A4C0080B400AF00BFBD4680BC704780B500AF0E
:101A5C00084A084B1B6843F010031360032000F086
:101A6C0027F9002000F008F8FFF7CEFE00231846F7
:101A7C0080BD00BF0020024080B582B000AF78600E
:101A8C00124B1A68124B1B7819464FF47A73B3FB3E
:101A9C00F1F3B2FBF3F3184600F031F90346002BD7
:101AAC0001D001230EE07B680F2B0AD80022796845
:101ABC004FF0FF3000F007F9064A7B6813600023F3
:101ACC0000E0012318460837BD4680BD28000020E1
:101ADC00300000202C00002080B400AF054B1B7898
:101AEC001A46054B1B681344034A136000BFBD46DE
:101AFC0080BC7047300000200002002080B400AF92
:101B0C00024B1B681846BD4680BC70470002002083
:101B1C0080B584B000AF7860FFF7F0FFB8607B68E9
:101B2C00FB60FB68B3F1FF3F05D0094B1B781A46ED
:101B3C00FB681344FB6000BFFFF7E0FF0246BB6885
:101B4C00D21AFB689A42F7D300BF1037BD4680BD4E
:101B5C003000002080B485B000AF78607B6803F063
:101B6C000703FB600C4BDB68BB60BA684FF6FF03E6
:101B7C001340BB60FB681A02BB68134343F0BF639E
:101B8C0043F40033BB60044ABB68D36000BF143716
:101B9C00BD4680BC704700BF00ED00E080B400AFD4
:101BAC00044BDB681B0A03F007031846BD4680BCD8
:101BBC00704700BF00ED00E080B483B000AF034677
:101BCC003960FB7197F90730002B0ADB0D4997F947
:101BDC0007303A68D2B21201D2B20B4483F8002318
:101BEC000AE00949FB7903F00F03043B3A68D2B2CF
:101BFC001201D2B20B441A7600BF0C37BD4680BC22
:101C0C00704700BF00E100E000ED00E080B489B057
:101C1C0000AFF860B9607A60FB6803F00703FB6102
:101C2C00FB69C3F10703042B28BF0423BB61FB69C9
:101C3C000433062B02D9FB69033B00E000237B61D4
:101C4C000122BB6902FA03F35A1EBB681A407B6976
:101C5C009A4001217B6901FA03F3591E7B680B4002
:101C6C00134318462437BD4680BC704780B582B0FC
:101C7C0000AF78607B68013BB3F1807F01D3012317
:101C8C000FE00A4A7B68013B53600F214FF0FF3095
:101C9C00FFF792FF054B00229A60044B07221A6053
:101CAC00002318460837BD4680BD00BF10E000E099
:101CBC0080B582B000AF78607868FFF74BFF00BF4B
:101CCC000837BD4680BD80B586B000AF0346B9600D
:101CDC007A60FB7300237B61FFF760FF78617A68A1
:101CEC00B9687869FFF792FF024697F90F301146F1
:101CFC001846FFF761FF00BF1837BD4680BD80B5A1
:101D0C0082B000AF78607868FFF7B0FF03461846E2
:101D1C000837BD4680BD000080B48BB000AF786042
:101D2C00396000237B6200233B6227E101227B6A3E
:101D3C0002FA03F3FB613B681A68FB691340BB6151
:101D4C00BA69FB699A4240F016813B685B68122BBA
:101D5C0034D0122B0DD8022B2BD0022B04D8002BF5
:101D6C0031D0012B1CD048E0032B43D0112B1BD0BE
:101D7C0043E0894A934226D0874A934206D8874A41
:101D8C00934220D0864A93421DD036E0854A934236
:101D9C0019D0854A934216D0844A934213D02CE032
:101DAC003B68DB683B6228E03B68DB6804333B62E2
:101DBC0023E03B68DB6808333B621EE03B68DB6872
:101DCC000C333B6219E03B689B68002B02D1042367
:101DDC003B6212E03B689B68012B05D108233B62F8
:101DEC007B68FA691A6108E008233B627B68FA6930
:101DFC005A6102E000233B6200BFBB69FF2B01D894
:101E0C007B6801E07B6804337B61BB69FF2B02D8E4
:101E1C007B6A9B0002E07B6A083B9B003B617B6911
:101E2C001A680F213B6901FA03F3DB431A40396A44
:101E3C003B6901FA03F31A437B691A603B685B68E0
:101E4C0003F08053002B00F09680594A584B9B6945
:101E5C0043F001039361564B9B6903F00103BB6094
:101E6C00BB68544A7B6A9B08023352F82330FB60F0
:101E7C007B6A03F003039B000F2202FA03F3DB439C
:101E8C00FA681340FB607B684B4A934213D07B6823
:101E9C004A4A93420DD07B68494A934207D07B68EB
:101EAC00484A934201D1032306E0042304E00223B1
:101EBC0002E0012300E000237A6A02F003029200A0
:101ECC009340FA681343FB603A497B6A9B080233E0
:101EDC00FA6841F823203B685B6803F48033002BDD
:101EEC0006D03949384B1A68BB6913430B6006E0BE
:101EFC003549354B1A68BB69DB4313400B603B68B3
:101F0C005B6803F40033002B06D02F492E4B5A6824
:101F1C00BB6913434B6006E02B492B4B5A68BB69DA
:101F2C00DB4313404B603B685B6803F48013002B6E
:101F3C0006D02549244B9A68BB6913438B6006E095
:101F4C002149214B9A68BB69DB4313408B603B688A
:101F5C005B6803F40013002B06D01B491A4BDA689C
:101F6C00BB691343CB6006E01749174BDA68BB69B2
:101F7C00DB431340CB607B6A01337B623B681A689E
:101F8C007B6A22FA03F3002B7FF4D0AE00BF2C3710
:101F9C00BD4680BC704700BF00002110000011102E
:101FAC00000012100000311000003210000022104E
:101FBC00001002400000014000080140000C0140EC
:101FCC0000100140001401400004014080B483B0B3
:101FDC0000AF78600B467B8013467B707B78002BC0
:101FEC0003D07A887B681A6103E07B881A047B68CB
:101FFC001A6100BF0C37BD4680BC704780B586B0F7
:10200C0000AF78607B68002B01D101236CE27B6808
:10201C001B6803F00103002B00F08780924B5B6878
:10202C0003F00C03042B0CD08F4B5B6803F00C03F8
:10203C00082B12D18C4B5B6803F48033B3F5803FD3
:10204C000BD1894B1B6803F40033002B6CD07B68DD
:10205C005B68002B68D1012346E27B685B68B3F5B3
:10206C00803F06D1804A804B1B6843F48033136059
:10207C002EE07B685B68002B0CD17B4A7A4B1B688B
:10208C0023F480331360784A774B1B6823F4802346
:10209C0013601DE07B685B68B3F5A02F0CD1724A0E
:1020AC00714B1B6843F4802313606F4A6E4B1B68A3
:1020BC0043F4803313600BE06B4A6B4B1B6823F4C7
:1020CC0080331360684A684B1B6823F480231360C9
:1020DC007B685B68002B13D0FFF710FD386108E0BC
:1020EC00FFF70CFD02463B69D31A642B01D903237D
:1020FC00FAE15D4B1B6803F40033002BF0D014E0C5
:10210C00FFF7FCFC386108E0FFF7F8FC02463B697E
:10211C00D31A642B01D90323E6E1534B1B6803F458
:10212C000033002BF0D100E000BF7B681B6803F08C
:10213C000203002B63D04C4B5B6803F00C03002BA9
:10214C000BD0494B5B6803F00C03082B1CD1464B9E
:10215C005B6803F48033002B16D1434B1B6803F0F0
:10216C000203002B05D07B681B69012B01D00123D6
:10217C00BAE13D493C4B1B6823F0F8027B685B6974
:10218C00DB0013430B603AE07B681B69002B20D00B
:10219C00364B01221A60FFF7B1FC386108E0FFF7FB
:1021AC00ADFC02463B69D31A022B01D903239BE1F8
:1021BC002D4B1B6803F00203002BF0D02A492A4B4D
:1021CC001B6823F0F8027B685B69DB0013430B6030
:1021DC0015E0264B00221A60FFF790FC386108E0EE
:1021EC00FFF78CFC02463B69D31A022B01D903235F
:1021FC007AE11D4B1B6803F00203002BF0D17B68C6
:10220C001B6803F00803002B3AD07B689B69002BFA
:10221C0019D0174B01221A60FFF770FC386108E0E7
:10222C00FFF76CFC02463B69D31A022B01D903233E
:10223C005AE10D4B5B6A03F00203002BF0D0012036
:10224C0000F0DAFA1CE00A4B00221A60FFF756FC89
:10225C0038610FE0FFF752FC02463B69D31A022BA0
:10226C0008D9032340E100BF0010024000004242A5
:10227C00800442429E4B5B6A03F00203002BE9D1BF
:10228C007B681B6803F00403002B00F0A68000237E
:10229C00FB75974BDB6903F08053002B0DD1944AEF
:1022AC00934BDB6943F08053D361914BDB6903F0B3
:1022BC008053BB60BB680123FB758E4B1B6803F41A
:1022CC008073002B18D18B4A8A4B1B6843F48073A4
:1022DC001360FFF713FC386108E0FFF70FFC0246B0
:1022EC003B69D31A642B01D90323FDE0814B1B6896
:1022FC0003F48073002BF0D07B68DB68012B06D1D4
:10230C007B4A7B4B1B6A43F0010313622DE07B6815
:10231C00DB68002B0CD1764A754B1B6A23F001034A
:10232C001362734A724B1B6A23F0040313621CE0A2
:10233C007B68DB68052B0CD16D4A6D4B1B6A43F037
:10234C00040313626A4A6A4B1B6A43F0010313626B
:10235C000BE0674A664B1B6A23F001031362644A65
:10236C00634B1B6A23F0040313627B68DB68002B4E
:10237C0015D0FFF7C3FB38610AE0FFF7BFFB02463D
:10238C003B69D31A41F28832934201D90323ABE063
:10239C00574B1B6A03F00203002BEED014E0FFF73F
:1023AC00ADFB38610AE0FFF7A9FB02463B69D31A83
:1023BC0041F28832934201D9032395E04C4B1B6ABE
:1023CC0003F00203002BEED1FB7D012B05D1484A13
:1023DC00474BDB6923F08053D3617B68DB69002BAF
:1023EC0000F08180424B5B6803F00C03082B61D03A
:1023FC007B68DB69022B46D13F4B00221A60FFF74A
:10240C007DFB386108E0FFF779FB02463B69D31A84
:10241C00022B01D9032367E0354B1B6803F00073D3
:10242C00002BF0D17B681B6AB3F5803F08D1304993
:10243C002F4B5B6823F400327B689B6813434B6023
:10244C002B482B4B5B6823F474127B68196A7B68EE
:10245C005B6A0B4313434360274B01221A60FFF75F
:10246C004DFB386108E0FFF749FB02463B69D31A84
:10247C00022B01D9032337E01D4B1B6803F00073BB
:10248C00002BF0D02FE01C4B00221A60FFF736FB1C
:10249C00386108E0FFF732FB02463B69D31A022B86
:1024AC0001D9032320E0124B1B6803F00073002BAF
:1024BC00F0D118E07B68DB69012B01D1012313E01B
:1024CC000B4B5B68FB60FB6803F480327B681B6A18
:1024DC009A4206D1FB6803F470127B685B6A9A42DD
:1024EC0001D0012300E0002318461837BD4680BDFB
:1024FC0000100240007000406000424280B584B081
:10250C0000AF786039607B68002B01D10123D0E0EB
:10251C006A4B1B6803F007023B689A4210D267496A
:10252C00664B1B6823F007023B6813430B60634B3D
:10253C001B6803F007023B689A4201D00123B8E004
:10254C007B681B6803F00203002B20D07B681B68A0
:10255C0003F00403002B05D0594A594B5B6843F434
:10256C00E06353607B681B6803F00803002B05D005
:10257C00534A534B5B6843F4605353605049504B80
:10258C005B6823F0F0027B689B6813434B607B68AD
:10259C001B6803F00103002B40D07B685B68012BA8
:1025AC0007D1474B1B6803F40033002B15D10123D3
:1025BC007FE07B685B68022B07D1414B1B6803F003
:1025CC000073002B09D1012373E03D4B1B6803F012
:1025DC000203002B01D101236BE03949384B5B68B6
:1025EC0023F003027B685B6813434B60FFF786FAAA
:1025FC00F8600AE0FFF782FA0246FB68D31A41F250
:10260C008832934201D9032353E02D4B5B6803F0CE
:10261C000C027B685B689B009A42EBD1274B1B68D2
:10262C0003F007023B689A4210D92449234B1B68DC
:10263C0023F007023B6813430B60204B1B6803F02D
:10264C0007023B689A4201D0012332E07B681B6889
:10265C0003F00403002B08D01949194B5B6823F4D1
:10266C00E0627B68DB6813434B607B681B6803F09C
:10267C000803002B09D01249114B5B6823F46052FC
:10268C007B681B69DB0013434B6000F021F80146AB
:10269C000B4B5B681B0903F00F030A4AD35C21FA4E
:1026AC0003F3094A1360094B1B681846FFF7E4F95A
:1026BC00002318461037BD4680BD00BF00200240E5
:1026CC000010024008450008280000202C000020C3
:1026DC0090B48AB000AF2A4B3C1D0FCB84E80F009E
:1026EC00284B1B883B800023FB610023BB6100232C
:1026FC007B6200237B6100233B62234B5B68FB61A5
:10270C00FB6903F00C03042B02D0082B03D02DE043
:10271C001E4B3B622DE0FB699B0C03F00F0307F192
:10272C002802134413F8243C7B61FB6903F48033C7
:10273C00002B13D0144B5B685B0C03F0010307F107
:10274C002802134413F8283CBB617B690F4A02FB37
:10275C0003F2BB69B2FBF3F37B6204E07B690C4AC6
:10276C0002FB03F37B627B6A3B6202E0074B3B623A
:10277C0000BF3B6A18462837BD4690BC704700BF67
:10278C00F4440008044500080010024000127A00CE
:10279C0000093D0080B400AF024B1B681846BD46D3
:1027AC0080BC70472800002080B500AFFFF7F2FF17
:1027BC000146054B5B681B0A03F00703034AD35C15
:1027CC0021FA03F3184680BD00100240184500089A
:1027DC0080B500AFFFF7DEFF0146054B5B68DB0AF7
:1027EC0003F00703034AD35C21FA03F3184680BDB8
:1027FC00001002401845000880B485B000AF786026
:10280C000A4B1B680A4AA2FB03235B0A7A6802FB89
:10281C0003F3FB6000BFFB685A1EFA60002BF9D172
:10282C0000BF1437BD4680BC704700BF2800002095
:10283C00D34D621080B582B000AF78607B68002BFE
:10284C0001D1012375E07B685B6A002B08D17B68A2
:10285C005B68B3F5827F09D07B680022DA6105E002
:10286C007B6800221A617B6800225A617B68002217
:10287C009A627B6893F85130DBB2002B06D17B68EF
:10288C00002283F850207868FEF7F0FF7B68022264
:10289C0083F851207B681B687A681268126822F0F2
:1028AC0040021A607B681B687A68526802F4827175
:1028BC007A68926802F4044211437A68D26802F48E
:1028CC00006211437A68126902F0020211437A68BD
:1028DC00526902F0010211437A68926902F40072A3
:1028EC0011437A68D26902F0380211437A68126A8D
:1028FC0002F0800211437A68926A02F400520A4391
:10290C001A607B681B687A689269120C02F00402E8
:10291C005A607B681B687A681268D26922F400627C
:10292C00DA617B6800225A657B68012283F85120AA
:10293C00002318460837BD4680BD80B588B000AF6F
:10294C00F860B9603B601346FB800023FB77FB68A3
:10295C0093F85030012B01D1022324E1FB680122B2
:10296C0083F85020FFF7CAF8B861FB88FB82FB683C
:10297C0093F85130DBB2012B02D00223FB7709E133
:10298C00BB68002B02D0FB88002B02D10123FB7704
:10299C0000E1FB68032283F85120FB6800225A6592
:1029AC00FB68BA681A63FB68FA889A86FB68FA882F
:1029BC00DA86FB6800229A63FB6800229A87FB6820
:1029CC000022DA87FB6800225A64FB6800221A6432
:1029DC00FB689B68B3F5004F0FD1FB681B68FA6866
:1029EC001268126822F040021A60FB681B68FA68D1
:1029FC001268126842F480421A60FB681B681B68FC
:102A0C0003F04003402B07D0FB681B68FA68126880
:102A1C00126842F040021A60FB68DB68B3F5006F85
:102A2C004BD1FB685B68002B02D0FB8A012B3ED19B
:102A3C00FB681B68FA68126B1288DA60FB681B6B08
:102A4C009A1CFB681A63FB68DB8E9BB2013B9AB243
:102A5C00FB68DA862BE0FB681B689B6803F00203BB
:102A6C00022B12D1FB681B68FA68126B1288DA60B1
:102A7C00FB681B6B9A1CFB681A63FB68DB8E9BB2B2
:102A8C00013B9AB2FB68DA8611E0FFF737F8024691
:102A9C00BB69D21A3B689A4203D33B68B3F1FF3F40
:102AAC0002D13B68002B02D10323FB7772E0FB6859
:102ABC00DB8E9BB2002BCED14CE0FB685B68002B0D
:102ACC0002D0FB8A012B40D1FB681B680C33FA68DF
:102ADC00126B12781A70FB681B6B5A1CFB681A631A
:102AEC00FB68DB8E9BB2013B9AB2FB68DA862CE06A
:102AFC00FB681B689B6803F00203022B13D1FB6875
:102B0C001B680C33FA68126B12781A70FB681B6B1B
:102B1C005A1CFB681A63FB68DB8E9BB2013B9AB2B2
:102B2C00FB68DA8611E0FEF7E9FF0246BB69D21AB0
:102B3C003B689A4203D33B68B3F1FF3F02D13B6839
:102B4C00002B02D10323FB7724E0FB68DB8E9BB2C6
:102B5C00002BCDD1BA693968F86800F0B1FB034697
:102B6C00002B02D0FB6820225A65FB689B68002B67
:102B7C000AD100233B61FB681B68DB683B61FB6887
:102B8C001B689B683B613B69FB685B6D002B01D04C
:102B9C000123FB77FB68012283F85120FB6800229C
:102BAC0083F85020FB7F18462037BD4680BD80B58A
:102BBC0088B002AFF860B9603B601346FB8000231D
:102BCC00FB75FB685B68B3F5827F12D1FB689B6871
:102BDC00002B0ED1FB68042283F85120FA883B6845
:102BEC0000931346BA68B968F86800F0EEF803462B
:102BFC00E7E0FB6893F85030012B01D10223E0E0B1
:102C0C00FB68012283F85020FEF778FF3861FB68DF
:102C1C0093F85130DBB2012B02D00223FB75C7E0D5
:102C2C00BB68002B02D0FB88002B02D10123FB7563
:102C3C00BEE0FB68042283F85120FB6800225A6531
:102C4C00FB68BA689A63FB68FA889A87FB68FA880B
:102C5C00DA87FB6800221A63FB6800229A86FB68FD
:102C6C000022DA86FB6800221A64FB6800225A6490
:102C7C00FB689B68B3F5004F0FD1FB681B68FA68C3
:102C8C001268126822F040021A60FB681B68FA682E
:102C9C001268126822F480421A60FB681B681B6879
:102CAC0003F04003402B07D0FB681B68FA681268DE
:102CBC00126842F040021A60FB68DB68002B61D19D
:102CCC002DE0FB681B689B6803F00103012B14D1FA
:102CDC00FB689B6BFA6812680C321278D2B21A70CD
:102CEC00FB689B6B5A1CFB689A63FB68DB8F9BB27F
:102CFC00013B9AB2FB68DA8711E0FEF7FFFE024651
:102D0C003B69D21A3B689A4203D33B68B3F1FF3F4D
:102D1C0002D13B68002B02D10323FB7548E0FB6812
:102D2C00DB8F9BB2002BCCD131E0FB681B689B681E
:102D3C0003F00103012B13D1FB689B6BFA6812683B
:102D4C00D26892B21A80FB689B6B9A1CFB689A63E0
:102D5C00FB68DB8F9BB2013B9AB2FB68DA8711E010
:102D6C00FEF7CCFE02463B69D21A3B689A4203D36B
:102D7C003B68B3F1FF3F02D13B68002B02D1032328
:102D8C00FB7515E0FB68DB8F9BB2002BCDD13A694C
:102D9C003968F86800F042FA0346002B02D0FB6851
:102DAC0020225A65FB685B6D002B01D00123FB755B
:102DBC00FB68012283F85120FB68002283F8502025
:102DCC00FB7D18461837BD4680BD80B58CB000AF72
:102DDC00F860B9607A607B800123FB62002387F87E
:102DEC002B30FB6893F85030012B01D1022388E182
:102DFC00FB68012283F85020FEF780FE7862FB68A6
:102E0C0093F8513087F82330FB685B68FB617B8853
:102E1C007B8397F82330012B0FD0FB69B3F5827FAE
:102E2C0007D1FB689B68002B03D197F82330042B48
:102E3C0003D0022387F82B3059E1BB68002B05D057
:102E4C007B68002B02D07B88002B03D1012387F8F1
:102E5C002B304CE1FB6893F85130DBB2042B03D0E0
:102E6C00FB68052283F85120FB6800225A65FB6839
:102E7C007A689A63FB687A88DA87FB687A889A871B
:102E8C00FB68BA681A63FB687A88DA86FB687A880A
:102E9C009A86FB6800221A64FB6800225A64FB685D
:102EAC001B681B6803F04003402B07D0FB681B68B2
:102EBC00FA681268126842F040021A60FB68DB681C
:102ECC00B3F5006F78D1FB685B68002B02D07B8B6D
:102EDC00012B66D1FB681B68FA68126B1288DA60EA
:102EEC00FB681B6B9A1CFB681A63FB68DB8E9BB23E
:102EFC00013B9AB2FB68DA8653E0FB681B689B685F
:102F0C0003F00203022B1BD1FB68DB8E9BB2002B60
:102F1C0016D0FB6A012B13D1FB681B68FA68126B85
:102F2C001288DA60FB681B6B9A1CFB681A63FB68DF
:102F3C00DB8E9BB2013B9AB2FB68DA860023FB6204
:102F4C00FB681B689B6803F00103012B19D1FB681C
:102F5C00DB8F9BB2002B14D0FB689B6BFA6812685A
:102F6C00D26892B21A80FB689B6B9A1CFB689A63BE
:102F7C00FB68DB8F9BB2013B9AB2FB68DA870123BB
:102F8C00FB62FEF7BBFD02467B6AD21ABB6B9A4210
:102F9C0007D3BB6BB3F1FF3F03D0032387F82B3070
:102FAC00A5E0FB68DB8E9BB2002BA6D1FB68DB8F08
:102FBC009BB2002BA1D17CE0FB685B68002B02D09C
:102FCC007B8B012B6BD1FB681B680C33FA68126B83
:102FDC0012781A70FB681B6B5A1CFB681A63FB682F
:102FEC00DB8E9BB2013B9AB2FB68DA8657E0FB683A
:102FFC001B689B6803F00203022B1CD1FB68DB8E61
:10300C009BB2002B17D0FB6A012B14D1FB681B68F9
:10301C000C33FA68126B12781A70FB681B6B5A1C13
:10302C00FB681A63FB68DB8E9BB2013B9AB2FB68B0
:10303C00DA860023FB62FB681B689B6803F00103C4
:10304C00012B19D1FB68DB8F9BB2002B14D0FB68D2
:10305C009B6BFA681268D268D2B21A70FB689B6BD1
:10306C005A1CFB689A63FB68DB8F9BB2013B9AB2DC
:10307C00FB68DA870123FB62FEF740FD02467B6AA0
:10308C00D21ABB6B9A4203D3BB6BB3F1FF3F02D195
:10309C00BB6B002B03D1032387F82B3027E0FB6895
:1030AC00DB8E9BB2002BA2D1FB68DB8F9BB2002B7B
:1030BC009DD17A6AB96BF86800F002F90346002BCF
:1030CC0006D0012387F82B30FB6820225A650EE0CE
:1030DC00FB689B68002B0AD100237B61FB681B6893
:1030EC00DB687B61FB681B689B687B617B69FB68A9
:1030FC00012283F85120FB68002283F8502097F8B6
:10310C002B3018463037BD4680BD000080B588B0E6
:10311C0000AFF860B9603B601346FB71FEF7EEFC44
:10312C000246BB6A9A1A3B681344FB61FEF7E6FC45
:10313C00B861394B1B685B011B0DFA6902FB03F389
:10314C007B6154E03B68B3F1FF3F50D0FEF7D6FCF7
:10315C000246BB69D21AFB699A4202D2FB69002B68
:10316C003DD1FB681B68FA681268526822F0E002D5
:10317C005A60FB685B68B3F5827F11D1FB689B6872
:10318C00B3F5004F04D0FB689B68B3F5806F07D193
:10319C00FB681B68FA681268126822F040021A6019
:1031AC00FB689B6AB3F5005F0FD1FB681B68FA687C
:1031BC001268126822F400521A60FB681B68FA68E5
:1031CC001268126842F400521A60FB68012283F8FC
:1031DC005120FB68002283F85020032317E07B6901
:1031EC00002B01D10023FB617B69013B7B61FB68F8
:1031FC001B689A68BB681A40BB689A420CBF0123D3
:10320C000023DBB21A46FB799A429BD10023184665
:10321C002037BD4680BD00BF2800002080B586B099
:10322C0002AFF860B9607A60FB685B68B3F5827FC7
:10323C0011D1FB689B68B3F5004F04D0FB689B6809
:10324C00B3F5806F07D1FB681B68FA6812681268C7
:10325C0022F040021A60FB685B68B3F5827F17D1DD
:10326C00FB689B68B3F5806F12D17B680093BB68D9
:10327C0000220121F868FFF749FF0346002B1AD002
:10328C00FB685B6D43F02002FB685A65032313E077
:10329C007B680093BB6800228021F868FFF736FF3B
:1032AC000346002B07D0FB685B6D43F02002FB68E4
:1032BC005A65032300E0002318461037BD4680BD35
:1032CC0080B586B002AFF860B9607A607B68009315
:1032DC00BB6800228021F868FFF718FF0346002B1B
:1032EC0007D0FB685B6D43F02002FB685A65032333
:1032FC0000E0002318461037BD4680BD80B582B073
:10330C0000AF78607B68002B01D101233FE07B6824
:10331C0093F83930DBB2002B06D17B68002283F89E
:10332C0038207868FEF7EEFA7B68242283F839207F
:10333C007B681B687A681268D26822F40052DA60E3
:10334C00786800F003F97B681B687A681268126968
:10335C0022F490421A617B681B687A681268526981
:10336C0022F02A025A617B681B687A681268D2685C
:10337C0042F40052DA607B680022DA637B68202218
:10338C0083F839207B68202283F83A2000231846E2
:10339C000837BD4680BD80B58AB002AFF860B96011
:1033AC003B601346FB8000237B61FB6893F839304C
:1033BC00DBB2202B7BD1BB68002B02D0FB88002B0F
:1033CC0001D1012374E0FB6893F83830012B01D153
:1033DC0002236DE0FB68012283F83820FB68002291
:1033EC00DA63FB68212283F83920FEF787FB7861CA
:1033FC00FB68FA889A84FB68FA88DA84FB689B6815
:10340C00B3F5805F08D1FB681B69002B04D1002346
:10341C00FB61BB68BB6103E0BB68FB610023BB6164
:10342C00FB68002283F8382029E03B6800937B6915
:10343C0000228021F86800F03FF80346002B01D0F1
:10344C00032335E0FB69002B0AD1FB681B68BA69C2
:10345C001288C2F308025A60BB690233BB6107E0F1
:10346C00FB681B68FA6912785A60FB690133FB61CF
:10347C00FB68DB8C9BB2013B9AB2FB68DA84FB687D
:10348C00DB8C9BB2002BD0D13B6800937B69002274
:10349C004021F86800F010F80346002B01D00323FC
:1034AC0006E0FB68202283F83920002300E0022389
:1034BC0018462037BD4680BD80B584B000AFF8609B
:1034CC00B9603B601346FB712CE0BB69B3F1FF3F65
:1034DC0028D0BB69002B07D0FEF710FB02463B68D7
:1034EC00D21ABB699A421DD9FB681B68FA6812682C
:1034FC00D26822F4D072DA60FB681B68FA68126832
:10350C00526922F001025A61FB68202283F83920AB
:10351C00FB68202283F83A20FB68002283F83820CD
:10352C0003230FE0FB681B681A68BB681A40BB6872
:10353C009A420CBF01230023DBB21A46FB799A4254
:10354C00C3D0002318461037BD4680BD90B585B05A
:10355C0000AF78607B681B687A681268126922F485
:10356C0040517A68D2680A431A617B689A687B6812
:10357C001B691A437B685B691343BB607B681A68E1
:10358C007B681B68DB6823F4B05323F00C03B96829
:10359C000B43D3607B681B687A681268526922F40B
:1035AC0040717A6892690A435A617B681B682C4A9D
:1035BC00934203D1FFF70CF9F86002E0FFF7F4F83F
:1035CC00F8607B681968FA6813469B0013449A00EC
:1035DC001A447B685B689B00B2FBF3F3214AA2FBA5
:1035EC0003235B091801FA6813469B0013449A00E5
:1035FC001A447B685B689B00B2FBF3F2194BA3FB8C
:10360C0002435B09642404FB03F3D31A1B0132331A
:10361C00144AA2FB03235B0903F0F0031844FA6875
:10362C0013469B0013449A001A447B685B689B000A
:10363C00B2FBF3F20B4BA3FB02435B09642404FBC8
:10364C0003F3D31A1B013233064AA2FB03235B0993
:10365C0003F00F0303448B6000BF1437BD4690BDCD
:10366C00003801401F85EB51002103E00B4B5B58E8
:10367C00435004310A480B4B42189A42F6D30A4A7B
:10368C0002E0002342F8043B084B9A42F9D3FEF7C0
:10369C00D7F900F015F8FDF773FF70475C4500088B
:1036AC000000002098000020980000200802002054
:1036BC00FEE70000014B1868704700BF3400002083
:1036CC0070B500250C4E0D4CA41BA410A54209D1BD
:1036DC0000F04EFC00250A4E0A4CA41BA410A54277
:1036EC0005D170BD56F8253098470135EEE756F8F0
:1036FC00253098470135F2E7544500085445000839
:10370C00544500085845000810B5431E0A44914220
:10371C0000D110BD11F8014B03F8014FF7E7034638
:10372C000244934200D1704703F8011BF9E70000F3
:10373C000EB44FF4027100B59CB0ADF814106FF0DC
:10374C000041049107914FF6FF711DAB029006905A
:10375C00084853F8042BADF81610006802A9019321
:10376C0000F066F80022029B1A701CB05DF804EBA6
:10377C0003B07047340000202DE9F0478E68824674
:10378C009E420C469146984635D88A8912F4906F21
:10379C0031D00223256809696F1A656905EB450567
:1037AC0095FBF3F508F101033B449D4238BF1D46E0
:1037BC00530531D5294600F03BFB064650B90C2386
:1037CC00CAF80030A3894FF0FF3043F04003A381C7
:1037DC00BDE8F0873A462169FFF796FFA38923F4E9
:1037EC00906343F08003A38126613E4426604646E5
:1037FC006561ED1BA560464528BF464649463246E5
:10380C00206800F0AFFAA36800209B1BA36023681C
:10381C001E442660BDE8F0872A4600F067FB06468A
:10382C000028E1D12169504600F0B6FAC7E7000044
:10383C002DE9F04F9DB003938B8980461C060D46F5
:10384C0016460FD50B696BB9402100F0F1FA2860D0
:10385C00286128B90C23C8F800304FF0FF30C4E0C1
:10386C0040236B610023099320238DF829303023EA
:10387C004FF0010B8DF82A3037463C4614F8013BCB
:10388C00002B3CD1B7EB060A0BD0534632462946E7
:10389C004046FFF771FF013000F0A280099B5344B2
:1038AC0009933B78002B00F09B8000234FF0FF32F4
:1038BC0004930793059206938DF853301A930522BF
:1038CC002178504800F040FA671C049BD8B9D906FF
:1038DC0044BF20228DF853201A0744BF2B228DF8A9
:1038EC00532022782A2A16D000210A20079A27462C
:1038FC003B780134303B092B50D9C9B111E0252B51
:10390C00C0D02746B9E73F4A3C46801A0BFA00F074
:10391C0018430490D3E7039A111D12680391002AEF
:10392C0001DB079204E0524243F002030792049336
:10393C003B782E2B0DD17B78791C2A2B32D1039B13
:10394C0002371A1D1B680392002BB8BF4FF0FF33D0
:10395C0005932D4C03223978204600F0F5F938B147
:10396C004023001B03FA00F0049B0137034304932C
:10397C003978062225487E1C8DF8281000F0E4F9D1
:10398C00002835D0224BFBB9039B073323F00703E8
:10399C0008330393099B4B4409936DE700FB0232F8
:1039AC000121A4E700230A24184605930F463A7810
:1039BC000131303A092A03D9002BCAD00590C8E747
:1039CC0004FB00200123F1E703AB00932A46114BC3
:1039DC0004A94046AFF30080B0F1FF3F8146D9D136
:1039EC00AB895B063FF539AF09981DB0BDE8F08F88
:1039FC0003AB00932A46074B04A9404600F084F819
:103A0C00EAE700BF20450008264500082A450008C3
:103A1C0000000000853700082DE9F04791461F464D
:103A2C008A680B6906469342B8BF1346C9F8003042
:103A3C0091F843200C46DDF8208012B10133C9F80F
:103A4C0000302368990642BFD9F800300233C9F818
:103A5C000030256815F0060507D104F1190AE36852
:103A6C00D9F800209B1A9D422ADB94F84330226837
:103A7C00003318BF012392062FD404F143023946B8
:103A8C003046C047013022D02368E56803F00603B6
:103A9C00042B18BF0025D9F800204FF0000908BFEF
:103AAC00AD1AA368226908BF25EAE5759342C4BF25
:103ABC009B1AED181A344D451BD10020BDE8F08738
:103ACC000123524639463046C047013003D14FF0EE
:103ADC00FF30BDE8F0870135C1E73020E11881F8EF
:103AEC0043005A1C94F845102244023382F84310C8
:103AFC00C3E70123224639463046C0470130E6D0A1
:103B0C0009F10109D7E700002DE9F04317460A7EB9
:103B1C0085B06E2A984606460C460C9B01F1430E66
:103B2C0000F0BC801AD8632A2ED00AD8002A00F0E4
:103B3C00C880582A00F08A8004F1420584F842209B
:103B4C002AE0642A01D0692AF6D121681A6811F09A
:103B5C00800F23D0111D1960136827E0732A00F021
:103B6C00B48008D86F2A2AD0702AE5D10A6842F0AE
:103B7C0020020A6003E0752A21D0782ADCD1782251
:103B8C006F4984F8452064E01A6801F14205111D63
:103B9C001960136884F842300123A3E011F0400F40
:103BAC0002F104011960D7D0B2F90030002B03DA0E
:103BBC002D225B4284F8432062490A2217E02068D8
:103BCC00196810F0800F03D0081D18600B6806E010
:103BDC0010F0400F01F104001860F7D00B886F2A29
:103BEC0014BF0A2208225749002084F84300656854
:103BFC00002DA560C0F29C80206820F0040020609D
:103C0C00002B3FD1002D40F095807546082A0BD132
:103C1C002368DA0708D5236962689A42DEBF30232D
:103C2C0005F8013C05F1FF35AEEB05032361CDF83A
:103C3C0000803B4603AA21463046FFF7EDFE0130DB
:103C4C0055D14FF0FF3005B0BDE8F08381F8452029
:103C5C003C492268186812F0800F00F104051D60C1
:103C6C0001D0036802E05506FBD50388D00744BF9A
:103C7C0042F0200222601BB9226822F0200222604E
:103C8C001022B1E77546B3FBF2F002FB1033CB5CAC
:103C9C0005F8013D03460028F5D1B7E708681A6816
:103CAC0010F0800F496904D0101D1860136819605A
:103CBC0007E010F0400F02F1040018601368F6D012
:103CCC001980002375462361B1E71A68111D19602C
:103CDC00156800216268284600F036F808B1401BD0
:103CEC00606063682361002384F843309FE7236995
:103CFC002A4639463046C0470130A2D023689B077C
:103D0C0007D5002504F11909E368039A9B1A9D4213
:103D1C0005DBE068039B9842B8BF184693E7012384
:103D2C004A4639463046C04701308AD00135EBE768
:103D3C00002BA7D10B7804F1420584F8423065E7DB
:103D4C00424500083145000810B5C9B20244904202
:103D5C00034601D1002010BD1C7801308C42F6D1F5
:103D6C00184610BD884210B501EB020303D8421E61
:103D7C0099420CD110BD9842F9D28118D21AD34273
:103D8C0000D110BD13F8014D01F8014DF7E711F802
:103D9C00014B02F8014FEBE738B50546002943D03B
:103DAC0051F8043C0C1F002BB8BFE41800F0D4F8F9
:103DBC001E4A1368104633B9636014602846BDE888
:103DCC00384000F0CAB8A3420BD92168621893425C
:103DDC0001BF1A685B685218226063600460EDE7EB
:103DEC0013465A680AB1A242FAD919685818A04267
:103DFC000BD120680144581882421960DED110683A
:103E0C005268014419605A60D8E702D90C232B6020
:103E1C00D4E7206821188A4201BF1168526809183A
:103E2C00216062605C60C9E738BD00BF60010020A2
:103E3C0070B5CD1C25F0030508350C2D38BF0C25AD
:103E4C00002D064601DBA94203D90C233360002068
:103E5C0070BD00F081F8234A1468214691B9224CB8
:103E6C0023681BB9304600F067F8206029463046BD
:103E7C0000F062F8431C26D10C233046336000F06E
:103E8C006CF8E4E70B685B1B1AD40B2B0FD90B6097
:103E9C00CC18CD50304600F060F804F10B00231D17
:103EAC0020F00700C31A1BD05A42E25070BD8C425E
:103EBC000BBF63684B681360636018BF0C46E9E77F
:103ECC000C464968CAE7C41C24F00304A04205D080
:103EDC00211A304600F030F80130CDD02560D9E7FA
:103EEC0070BD00BF6001002064010020F8B50746DA
:103EFC0014460E4621B91146BDE8F840FFF798BFAD
:103F0C0022B9FFF749FF25462846F8BD00F026F8F0
:103F1C0084420FD921463846FFF78AFF0546002810
:103F2C00F2D031462246FFF7EFFB31463846FFF719
:103F3C0033FFE9E73546E7E738B50023054C05467E
:103F4C0008462360FDF750FD431C02D1236803B1E2
:103F5C002B6038BD040200207047704751F8040CE8
:103F6C000028A0F10400BCBF0B58C018704700001B
:103F7C00F8B500BFF8BC08BC9E467047F8B500BF4A
:083F8C00F8BC08BC9E4670471A
:103F94000D0A2A2A2A2A2A2A2A2A2A2A2A2A2A2ABA
:103FA4002A2A2A2A2A2A2A2A2A2A2A2A2A2A2A2A6D
:103FB4002A2A2A2A2A2A2A2A2A2A2A2A2A2A2A2A5D
:103FC4000D0A00004352433A0D0A0909456E616225
:103FD4006C65642C2032204279746573200D0A00CC
:103FE4004352433A0D0A0909456E61626C65642CBB
:103FF40020312042797465200D0A00004352433A6F
:104004000D0A090944697361626C6564200D0A0034
:10401400454E41413A0D0A090950303A0925640DCB
:104024000A090950313A0925640D0A090950323A3E
:104034000925640D0A090950333A0925640D0A0952
:104044000950343A0925640D0A090950353A0925FD
:10405400640D0A00454E5F5258414444523A0D0AD9
:10406400090950303A0925640D0A090950313A0901
:1040740025640D0A090950323A0925640D0A090913
:1040840050333A0925640D0A090950343A09256464
:104094000D0A090950353A0925640D0A000000008B
:1040A40053455455505F41573A0D0A090925642078
:1040B4006279746573200D0A0000000052465F4364
:1040C400483A0D0A09092564204348200D0A0000D6
:1040D4004461746120526174653A0D0A0909324DD4
:1040E400627073200D0A000044617461205261748F
:1040F400653A0D0A0909314D627073200D0A0000FA
:1041040052465F5057523A0D0A09092D313864421C
:10411400200D0A0052465F5057523A0D0A09092DE4
:1041240031326442200D0A0052465F5057523A0D14
:104134000A09092D366442200D0A000052465F50D8
:1041440057523A0D0A0909306442200D0A00000052
:1041540052585F50697065302041646472733A0D3F
:104164000A0909253032582C253032582C25303292
:10417400582C253032582C2530325820200D0A0076
:1041840052585F50697065312041646472733A0D0E
:104194000A0909253032582C253032582C25303262
:1041A400582C253032582C2530325820200D0A0046
:1041B40052585F50697065322041646472733A0DDD
:1041C4000A090978782C78782C78782C78782C253A
:1041D40030325820200D0A0052585F506970653300
:1041E4002041646472733A0D0A090978782C78784E
:1041F4002C78782C78782C2530325820200D0A0021
:1042040052585F50697065342041646472733A0D8A
:104214000A090978782C78782C78782C78782C25E9
:1042240030325820200D0A0052585F5069706535AD
:104234002041646472733A0D0A090978782C7878FD
:104244002C78782C78782C2530325820200D0A00D0
:1042540054582041646472733A0D0A0909253032B6
:10426400582C253032582C253032582C25303258D1
:104274002C2530325820200D0A00000052585F507F
:10428400575F50303A0D0A09092564206279746534
:1042940073200D0A0000000052585F50575F5031E0
:1042A4003A0D0A09092564206279746573200D0AA0
:1042B4000000000052585F50575F50323A0D0A090F
:1042C400092564206279746573200D0A00000000DA
:1042D40052585F50575F50333A0D0A09092564203C
:1042E4006279746573200D0A0000000052585F5013
:1042F400575F50343A0D0A090925642062797465C0
:1043040073200D0A0000000052585F50575F50356B
:104314003A0D0A09092564206279746573200D0A2F
:104324000000000044594E50445F706970653A0DB6
:104334000A090950303A0925640D0A090950313A2D
:104344000925640D0A090950323A0925640D0A0940
:104354000950333A0925640D0A090950343A0925EC
:10436400640D0A090950353A0925640D0A00000054
:10437400454E5F44504C3A0D0A0909456E61626C22
:104384006564200D0A000000454E5F44504C3A0D10
:104394000A090944697361626C6564200D0A0000AE
:1043A400454E5F41434B5F5041593A0D0A09094557
:1043B4006E61626C6564200D0A000000454E5F4129
:1043C400434B5F5041593A0D0A09094469736162CC
:1043D4006C6564200D0A00000D0A2D2D2D2D2D2D48
:1043E4002D2D2D2D2D2D2D2D2D2D2D2D2D2D2D2DF9
:1043F4002D2D2D0D0A0000005354415455532072A5
:1044040065673A0D0A090952585F44523A09092569
:10441400640D0A090954585F44533A090925640D87
:104424000A09094D41585F52543A090925640D0A95
:10443400090952585F505F4E4F3A0925640D0A0925
:104444000954585F46554C4C3A0925640D0A00003E
:10445400434F4E464947207265673A0D0A09095091
:1044640057525F55503A090925640D0A09095052FB
:10447400494D5F52583A0925640D0A004649464F92
:1044840020537461747573207265673A0D0A0909C3
:1044940054585F46554C4C3A090925640D0A0909DC
:1044A40054585F454D5054593A090925640D0A0979
:1044B4000952585F46554C4C3A090925640D0A09BE
:1044C4000952585F454D5054593A090925640D0A5B
:1044D400000000005472616E736D69747465642029
:1044E4005375636365737366756C6C790D0A0000AC
:1044F40002030405060708090A0B0C0D0E0F101021
:10450400010200000000000000000000010203049A
:10451400060708090000000001020304232D302BC4
:104524002000686C4C0065666745464700303132B0
:104534003334353637383941424344454600303107
:104544003233343536373839616263646566000066
:044554003101000829
:044558000D01000849
:10455C00AA443322110000004D657268616261004B
:10456C00000000000000000000000000000000003F
:10457C0000000000000000000024F4001000000007
:10458C0001000000380000200000000000000000C6
:10459C00000000000000000000000000000000000F
:1045AC0000000000000000000000000000000000FF
:1045BC0000000000000000000000000000000000EF
:1045CC0000000000000000000000000000000000DF
:1045DC0000000000000000000000000000000000CF
:0845EC000000000000000000C7
:040000050800367544
:00000001FF
